{
  "_format": "hh-sol-artifact-1",
  "contractName": "Student",
  "sourceName": "contracts/Student.sol",
  "abi": [
    {
      "inputs": [],
      "name": "id",
      "outputs": [
        {
          "internalType": "uint256",
          "name": "",
          "type": "uint256"
        }
      ],
      "stateMutability": "view",
      "type": "function"
    },
    {
      "inputs": [],
      "name": "name",
      "outputs": [
        {
          "internalType": "string",
          "name": "",
          "type": "string"
        }
      ],
      "stateMutability": "view",
      "type": "function"
    },
    {
      "inputs": [
        {
          "internalType": "string",
          "name": "_name",
          "type": "string"
        },
        {
          "internalType": "uint256",
          "name": "_id",
          "type": "uint256"
        }
      ],
      "name": "setStudent",
      "outputs": [],
      "stateMutability": "nonpayable",
      "type": "function"
    }
  ],
  "bytecode": "0x6080604052348015600f57600080fd5b506107188061001f6000396000f3fe608060405234801561001057600080fd5b50600436106100415760003560e01c806306fdde03146100465780639b4d52dd14610064578063af640d0f14610080575b600080fd5b61004e61009e565b60405161005b91906101dd565b60405180910390f35b61007e6004803603810190610079919061037e565b61012c565b005b610088610147565b60405161009591906103e9565b60405180910390f35b600080546100ab90610433565b80601f01602080910402602001604051908101604052809291908181526020018280546100d790610433565b80156101245780601f106100f957610100808354040283529160200191610124565b820191906000526020600020905b81548152906001019060200180831161010757829003601f168201915b505050505081565b816000908161013b9190610610565b50806001819055505050565b60015481565b600081519050919050565b600082825260208201905092915050565b60005b8381101561018757808201518184015260208101905061016c565b60008484015250505050565b6000601f19601f8301169050919050565b60006101af8261014d565b6101b98185610158565b93506101c9818560208601610169565b6101d281610193565b840191505092915050565b600060208201905081810360008301526101f781846101a4565b905092915050565b6000604051905090565b600080fd5b600080fd5b600080fd5b600080fd5b7f4e487b7100000000000000000000000000000000000000000000000000000000600052604160045260246000fd5b61025582610193565b810181811067ffffffffffffffff821117156102745761027361021d565b5b80604052505050565b60006102876101ff565b9050610293828261024c565b919050565b600067ffffffffffffffff8211156102b3576102b261021d565b5b6102bc82610193565b9050602081019050919050565b82818337600083830152505050565b60006102eb6102e684610298565b61027d565b90508281526020810184848401111561030757610306610218565b5b6103128482856102c9565b509392505050565b600082601f83011261032f5761032e610213565b5b813561033f8482602086016102d8565b91505092915050565b6000819050919050565b61035b81610348565b811461036657600080fd5b50565b60008135905061037881610352565b92915050565b6000806040838503121561039557610394610209565b5b600083013567ffffffffffffffff8111156103b3576103b261020e565b5b6103bf8582860161031a565b92505060206103d085828601610369565b9150509250929050565b6103e381610348565b82525050565b60006020820190506103fe60008301846103da565b92915050565b7f4e487b7100000000000000000000000000000000000000000000000000000000600052602260045260246000fd5b6000600282049050600182168061044b57607f821691505b60208210810361045e5761045d610404565b5b50919050565b60008190508160005260206000209050919050565b60006020601f8301049050919050565b600082821b905092915050565b6000600883026104c67fffffffffffffffffffffffffffffffffffffffffffffffffffffffffffffffff82610489565b6104d08683610489565b95508019841693508086168417925050509392505050565b6000819050919050565b600061050d61050861050384610348565b6104e8565b610348565b9050919050565b6000819050919050565b610527836104f2565b61053b61053382610514565b848454610496565b825550505050565b600090565b610550610543565b61055b81848461051e565b505050565b5b8181101561057f57610574600082610548565b600181019050610561565b5050565b601f8211156105c45761059581610464565b61059e84610479565b810160208510156105ad578190505b6105c16105b985610479565b830182610560565b50505b505050565b600082821c905092915050565b60006105e7600019846008026105c9565b1980831691505092915050565b600061060083836105d6565b9150826002028217905092915050565b6106198261014d565b67ffffffffffffffff8111156106325761063161021d565b5b61063c8254610433565b610647828285610583565b600060209050601f83116001811461067a5760008415610668578287015190505b61067285826105f4565b8655506106da565b601f19841661068886610464565b60005b828110156106b05784890151825560018201915060208501945060208101905061068b565b868310156106cd57848901516106c9601f8916826105d6565b8355505b6001600288020188555050505b50505050505056fea264697066735822122061aa98f447a71f3e1965a6b745a4e0b27ceda155a0b46120a41dfed64dbdb45f64736f6c634300081b0033",
  "linkReferences": {},
  "deployedLinkReferences": {}
}